S01900004368726973746D61734F726E616D656E742E7372656319
S113000010C02AC029C028C027C026C025C024C0CB
S113001023C022C021C020C01FC01EC01DC01CC0E0
S11300201BC011241FBECFE5D1E0DEBFCDBF10E061
S1130030A0E6B0E0E6E6F1E002C005900D92A43639
S1130040B107D9F720E0A4E6B0E001C01D92A636BE
S1130050B207E1F702D085C0D3CF8FEF8ABBB89A3D
S11300601BBAC09861E070E0E0E6F0E020E030E028
S1130070AB01022E02C0440F551F0A94E2F780918F
S1130080640090916500842B952B90936500809378
S113009064008BBB8091650088BB4FE58AEE90E0DD
S11300A0415080409040E1F700C000002F5F3F4F77
S11300B029303105E9F649E050E0CB01042E02C0B5
S11300C0880F991F0A94E2F7809590952091640017
S11300D0309165008223932390936500809364009C
S11300E08BBB8091650088BB2FE58AEE90E02150A0
S11300F080409040E1F700C0000041505109E8F60B
S113010080818BBBC09A4FE38DE093E041508040E7
S11301109040E1F700C0000081818BBBC0982FE3C1
S11301204DE083E0215040408040E1F700C00000F2
S113013082818BBBC09A9FE32DE043E09150204025
S11301404040E1F700C0000083818BBBC0988FE37F
S11301509DE023E0815090402040E1F700C0000082
S109016085CFF894FFCFE7
S107016655AA996693
S9030000FC
